:020000040800F2
:10000000000003205D0600089522000897220008E2
:10001000992200089B2200089D2200080000000091
:10002000000000000000000000000000418D0008FA
:100030009F22000800000000D18D0008658600089E
:10004000AD060008AD060008AD060008AD060008C4
:10005000AD060008AD060008AD060008AD060008B4
:10006000AD060008AD060008AD060008AD060008A4
:10007000AD060008AD060008AD060008AD06000894
:10008000AD060008AD060008AD060008AD06000884
:10009000AD060008AD060008AD060008AD06000874
:1000A000AD060008AD060008AD060008AD06000864
:1000B000AD060008AD060008AD060008AD06000854
:1000C000AD060008AD060008AD060008AD06000844
:1000D000AD060008AD060008AD060008AD06000834
:1000E000AD060008AD060008AD060008AD06000824
:1000F000AD060008AD060008AD060008AD06000814
:10010000AD060008AD060008AD060008AD06000803
:10011000AD060008AD060008A1220008AD060008E3
:10012000AD060008AD060008AD060008AD060008E3
:10013000AD060008AD060008AD060008AD060008D3
:10014000AD060008AD060008AD060008AD060008C3
:10015000AD060008AD060008AD060008AD060008B3
:10016000AD060008AD060008AD060008AD060008A3
:10017000AD060008AD060008AD060008000000004E
:10018000AD060008AD060008AD060008AD06000883
:10019000AD060008AD060008AD060008AD06000873
:0C01A000AD220008AD060008B9220008DE
:1001B00010B5054C237833B9044B13B10448AFF3A1
:1001C00000800123237010BD6003002000000000A8
:1001D0008465020808B5034B1BB103490348AFF31C
:1001E000008008BD00000000640300208465020850
:1001F00001F0FF01102A2BDB10F0070F08D010F8D8
:10020000013B013A8B422DD010F0070F42B3F6D1DB
:10021000F0B441EA012141EA014122F007047FF0F4
:1002200000070023F0E80256083C85EA010586EA4B
:10023000010685FA47F5A3FA87F586FA47F6A5FA87
:1002400087F68EB9EED1F0BC01F0FF0102F0070293
:1002500032B110F8013B013A83EA010313B1F8D13E
:100260000020704701387047002D06BF354603381F
:10027000073815F0010F07D1013015F4807F02BF58
:10028000013015F4C03F0130F0BC0138704700BFA9
:100290007BB972B90029BEBF00204FF0004106E0D3
:1002A00008BF00281CBF6FF000414FF0FF3000F086
:1002B000D3B9ADF1080C6DE904CE002909DB002BA0
:1002C0001ADB00F04DF8DDF804E0DDE9022304B0AC
:1002D0007047404261EB4101002B1BDB00F040F80E
:1002E000DDF804E0DDE9022304B0404261EB4101A6
:1002F000524263EB43037047524263EB430300F007
:100300002FF8DDF804E0DDE9022304B0404261EBA0
:1003100041017047524263EB430300F021F8DDF8DE
:1003200004E0DDE9022304B0524263EB430370476B
:1003300053B94AB9002908BF00281CBF4FF0FF314C
:100340004FF0FF3000F088B9ADF1080C6DE904CE34
:1003500000F006F8DDF804E0DDE9022304B07047A0
:100360002DE9F047089D8E4604468846002B4AD169
:100370008A42174662D9B2FA82F64EB1C6F120031C
:1003800001FA06F820FA03F3B74043EA0808B4403C
:100390004FEA174E1FFA87FCB8FBFEF1230C0EFB49
:1003A000118843EA084301FB0CF29A4209D9FB1871
:1003B00001F1FF3080F0EA809A4240F2E780023992
:1003C0003B449A1AA3B2B2FBFEF00EFB102243EAA2
:1003D000024300FB0CFC9C4509D9FB1800F1FF32DD
:1003E00080F0D6809C4540F2D3803B44023840EAFE
:1003F0000140A3EB0C0300211DB1F3400022C5E92D
:100400000032BDE8F0878B4205D90DB1C5E9000186
:1004100000210846F5E7B3FA83F1002946D1734578
:1004200002D3824200F20581841A6EEB030201209E
:100430009046002DE5D0C5E90048E2E7002A00F02B
:100440009080B2FA82F6002E40F0A4808A1A030C43
:100450004FEA174E80B2BCB20121B2FBFEFC0EFB8C
:100460001C2243EA024304FB0CF29A4207D9FB1810
:100470000CF1FF3802D29A4200F2E080C4469B1A87
:10048000B3FBFEF20EFB123340EA034302FB04F41B
:100490009C4207D9FB1802F1FF3002D29C4200F2C5
:1004A000CA8002461B1B42EA0C40A5E7C1F12006A8
:1004B0008B4022FA06F71F430EFA01F420FA06F3E6
:1004C0002EFA06FE4FEA1749234300FA01F81FFAF5
:1004D00087FCBEFBF9F01C0C09FB10EE44EA0E444D
:1004E00000FB0CFEA64502FA01F209D93C1900F105
:1004F000FF3A80F09C80A64540F2998002383C4447
:10050000A4EB0E041FFA83FEB4FBF9F309FB1344BA
:100510004EEA044403FB0CFCA44508D93C1903F142
:10052000FF3E80F08280A4457FD9023B3C4443EAF1
:100530000040A4EB0C04A0FB02EC64457346E146CA
:1005400062D35FD05DB1B8EB030264EB090404FA37
:1005500006F622FA01F31E43CC40C5E900640021EF
:100560004FE7B1FBF2FC010C41EA0E4180B240EAD8
:1005700001423B4638463C46B846BE462026B1FBC3
:10058000F7F1A2EB080241EA0C4166E7014618E7E1
:1005900010462CE7C6F120022EFA02F3B740B14014
:1005A00020FA02F24FEA174E0A43B3FBFEF8BCB240
:1005B0000EFB1833110C41EA034108FB04F9B0406B
:1005C00089454FEA104380B23ED9791808F1FF3CC3
:1005D00001D289451FD8A1EB0901B1FBFEF909FB46
:1005E00004F80EFB191192B242EA0142424529D2A7
:1005F000BA1809F1FF31C4D24245C2D2A9F10201B1
:100600003A44BEE7F0459DD2BEEB02036CEB070C0B
:100610000138E14696E7A7EB09094944A8F1020C25
:10062000B1FBFEF909FB04F8DBE773467FE75046B0
:1006300066E70846FDE63B44023A33E7ACF1020CBC
:100640003B441CE749469CE7A1EB0901C446B1FBCA
:10065000FEF909FB04F8C4E7704700BFDFF834D0A7
:10066000002103E00C4B5B58435004310B480C4B0A
:1006700042189A42F6D30B4A02E0002342F8043BA8
:10068000094B9A42F9D305F093FD25F0C1F901F029
:10069000A9F8704700000320248E03080000002002
:1006A000600300206003002008440120FEE770473B
:1006B00008B500F0D1FDBDE8084000F053BD00F0E2
:1006C000CDBD704710B50421044624F016F820462D
:1006D00010BD000038B50C4B0C4C18800C4B822020
:1006E00019806368984740F6110398420AD1094D72
:1006F00023682C60822098472B688220DB6898470B
:10070000002038BD0120FCE7860300204C000020BB
:1007100084030020880300204FF4A071F020FFF72D
:10072000D9BF0000F7B5394D2B6804461B698220FC
:100730009847208000284ED02B680DF106025B6997
:1007400001A982209847324B1B78002B4BD0BDF873
:10075000062040F674639A423FD9ADF80630BDF8E2
:1007600006209B1A9BB20A2B42D90B22B3FBF2F351
:10077000284A1288934201D9013A93B2BDF8042065
:10078000254840F6B8318A4234D8C2F571620E323B
:10079000016892B20F25B2FBF5F2204D2D88AA42D6
:1007A00084BF05F1FF35AAB28A4215468EB22AD916
:1007B000921B91B21A4E3768BB42BAB28CBF9A1ADA
:1007C000D21A92B211440529C4BF05603360036890
:1007D00063803368A38003B0F0BDB32A9CBFB4220A
:1007E000ADF80620BBE7BDF80630A3F5B473B9E752
:1007F0000023C3E7C2F56D62083292B20E2A016887
:10080000C8D800252A46891A89B2D3E78803002070
:100810008C26002084030020800300208603002013
:100820007C03002037B568460D461446FFF77AFF73
:10083000BDF8000030B1BDF802302B60BDF80430C7
:100840002360012003B030BD032821D8DFE800F089
:10085000020B12190F4B1A68B2FA82F252090421E4
:100860000D4805F039BF0B4B5A68B2FA82F25209B3
:100870000821F5E7074B9A68B2FA82F25209102173
:10088000EEE7044BDA68B2FA82F252092021E7E778
:10089000704700BF8C03002000100240032821D8BD
:1008A000DFE800F0020B12190F4B1A68003A18BF6C
:1008B000012204210D4805F00FBF0B4B5A68003A86
:1008C00018BF01220821F5E7074B9A68003A18BFC4
:1008D00001221021EEE7044BDA68003A18BF01222A
:1008E0002021E7E7704700BF8C0300200010024082
:1008F00003280DD8DFE800F00206080A04210548A5
:1009000005F0EFBE0821FAE71021F8E72021F6E70D
:10091000704700BF0010024008B5032811D8DFE877
:1009200000F0020A0C0E0421074805F0CFFE431E1A
:100930005842584108BD0821F6E71021F4E720216C
:10094000F2E70020F3E700BF0010024070B5084D49
:1009500000240126E0B2FFF7DFFF18B12B68012B5E
:1009600018BF2E600134052C05F10405F2D170BDCD
:100970008C030020012380F87C1080F87D307047C4
:100980007047002070470000034B8164003918BF96
:1009900001211970704700BFC33601207047002045
:1009A0007047C36B0BB10846184770474FF6FF708E
:1009B0007047406803689B691847704770477047E5
:1009C0007047704710B5044600F060FD2368034986
:1009D000D3F890302046BDE810401847000000D002
:1009E00008B503680446D3F8843098472368204646
:1009F000DB6F984700F008F9236820465B6F984743
:100A0000292001F067F900F0FFF8236820465B6FAA
:100A10009847F8E710B504460AF0C8FF2368204657
:100A2000D3F8BC30BDE81040184700F013BD00F00B
:100A300017BD00F049BD00F0E9BC00F059BD00F061
:100A400061BD00F0EDBC0AF0A4B910B588210446E0
:100A500023F053FE204610BD10B590F8381090F8E2
:100A60007C400C4B8C421A7809D03AB90A4A0B499F
:100A70001488088810800C8001221A7010BD002A8A
:100A8000FCD0054A05491488088810800C80002293
:100A9000F3E700BFC2360120CC360120CA36012060
:100AA00008B5094B1B888B4203D8084B1B8893421F
:100AB00005D9074B074A0848A52124F03DFD074BFF
:100AC0001980074B1A8008BDCC360120CA36012098
:100AD000F4650208576602089A660208C8360120C3
:100AE000C63601202DE9F0410D460446194635B9B8
:100AF000154B164A164840F2013124F01DFDC0E99D
:100B000010520368134ED3F89030003A18BF0122F8
:100B100032709847E569A5B12B681F68337873B1C7
:100B2000236820465B6B9847236C834207D1616C36
:100B3000094B28461A883B46BDE8F0411847216C0E
:100B4000F6E7BDE8F08100BFDF660208176702081C
:100B50009A660208C4360120C8360120034690F880
:100B60007E0018B1586803681B681847704700007A
:100B7000012108B50022084607F0FEFD0A4B186067
:100B800028B90A4B0A4A28210A4824F0D5FC002239
:100B90000421012007F08FFE074B186018B9074B9E
:100BA000034A2C21F0E708BDA00300206567020876
:100BB000AE670208DD6702089C0300202368020874
:100BC000024B4FF0FF31186807F020BEA003002051
:100BD000014B186807F046BEA0030020024B00211D
:100BE000186807F013BE00BFA0030020FFF7F0BF96
:100BF00003480449006800231A4607F097BE00BF67
:100C00009C0300200400002013B5084C00231A4662
:100C100001A9206807F0BBFE20684FF0FF330022D7
:100C200001A907F0B4FE02B010BD00BF9C03002074
:100C300003685B6C18470120704703689B6A18477C
:100C4000FEE740F2EF307047054B0360054B4FF075
:100C50008062C3F88820BFF34F8FBFF36F8F704758
:100C60008078020800E100E010B504464FF45A61B4
:100C7000FFF7EAFF204623F040FD204610BD0000AC
:100C800082B0002301930E4B1A6B42F400021A63E8
:100C90001A6B02F400020192019A1A6942F40002EE
:100CA0001A611A6922F400021A61064B064A5A6157
:100CB000064A1A61064B4FF080629A6002B0704794
:100CC0000038024020280020410C00080D0F0008C9
:100CD00000E100E008B50A2809D8DFE800F00610B6
:100CE0000E080808081010101000022008BD054B5F
:100CF000054A0648902124F01FFC0020F6E7012059
:100D0000F4E700BF6568020880680208CB68020843
:100D100038B50C46887FFFF7DDFFA58AE28A114BC4
:100D20002169586342EA05425A64628BD963521BB7
:100D30001A642568082D0ED19A611A615862207FC5
:100D4000094A42EA0062DA61E2681A62074A5961B6
:100D5000D9601A6038BD0022D8611A61E2689A63CE
:100D6000034AF6E700B00240090001000123020037
:100D70000123030008B50B280BD8DFE800F00612AA
:100D8000100A0A0A0A0808080808022008BD0520F7
:100D9000FCE7054B054A06486F2124F0CDFB0020F7
:100DA000F4E70120F2E700BF656802080F69020856
:100DB000CB6802082DE9F04191F81D800C464046B1
:100DC000FFF7D8FFA77F05463846FFF7D3FF064653
:100DD0003846FFF77FFFA18A628B444B521A1A6490
:100DE0009A61228B521A1A61E28A586342EA0142DE
:100DF0005A6421696268D963DA602068802828D043
:100E0000227F0FD8202867D0402865D004281AD028
:100E1000364B45EA026545F40035B845DD6161D0E1
:100E2000334A44E0B0F5807F04D0B0F5007FEFD1C5
:100E3000304800E0304840EA0262DA61E2681A6253
:100E40005E62596132E045EA026242F40032DA61E0
:100E5000F6E7A068021DDA62227F45EA026545F4E2
:100E60000035DD615E625961017841B1012921D00F
:100E7000224B234A23484FF48D7124F05DFBDA693D
:100E8000418822F47F42013922F0100242EA012215
:100E9000DA610121154BDA6942F02002DA61DA6980
:100EA0009206FCD410229A600029B9D0164A1A6022
:100EB000BDE8F081B2F1FF01DA69408822F47F4297
:100EC00000F1FF3022F0100242EA002242F010024C
:100ED00018BF0121DA61DDE745EA0262034B42F403
:100EE0000032B4E742F20132E1E700BF00B0024055
:100EF00001230100090002000A00020059690208EA
:100F000073690208CB68020801230200024B1B68C8
:100F1000586803685B691847D036012070B50446ED
:100F200025460A4B0C30002660602672667245F832
:100F3000203B602229460AF0A3FE04F55A63EE60C6
:100F400024359D42FBD1204670BD00BF8078020849
:100F5000034B1A68D207FCD423229A60704700BF63
:100F600000B002407047000030B50F4C2568ED0717
:100F7000FCD423250904A56041F001010225FF2BC3
:100F800065636164E0630AD00849656241EA03630E
:100F9000E361074B22626061E060236030BDE56180
:100FA000039BA363034BF8E700B002400900010074
:100FB000010002000100030030B50E4C2568ED076A
:100FC000FCD423251204A56042F001020225FF2B68
:100FD00065636264E063E16008D01B0643F00213BE
:100FE000E361054B65626061236030BD034BE361E3
:100FF0000123F9E700B0024001000200020002FFF5
:1010000030B50B4C2568ED07FCD4232512041B06D4
:10101000A56043F40033022542F001026563626477
:10102000E063E160E361034B65626061236030BDB2
:1010300000B00240010002000120704740207047CC
:1010400000EB81100830704700EB811008307047CA
:101050000120704741F24C10704741F24C1303FBE2
:1010600001000830704741F24C1303FB01000830C7
:1010700070470120704718207047182303FB0100B8
:1010800008307047182303FB0100083070470846FA
:1010900001F002BD10B5034B0360044609F0CBFB21
:1010A000204610BD3879020810B50446FFF7F2FF5C
:1010B0002046482123F021FB204610BD10B5034BEC
:1010C0000360044609F0B7FB204610BD047902080E
:1010D00010B50446FFF7F2FF204641F2541123F009
:1010E0000CFB204610BD000010B5034B0360044606
:1010F00009F0A1FB204610BDD078020810B50446C7
:10110000FFF7F2FF2046202123F0F7FA204610BD1A
:1011100010B5094B0360044600F58C500830FFF70A
:10112000B9FF04F13400FFF7C9FF04F11400FFF721
:10113000DBFF204610BD00BF6C79020808B50248ED
:10114000FFF7E6FF08BD00BF8012002010B504467F
:10115000FFF7DEFF20464FF49A5123F0CEFA2046E7
:1011600010BD00002DE9F34101F01AF9054601F028
:101170001BF900240146234628462246009414F019
:1011800055FA274B274A1A60204604F025F8264DC9
:10119000264B274A27489A6014F0AEF92B68BFF314
:1011A0005B8FDB0736D4284623F0A9FA90B3224C94
:1011B000224F234B236007F15C0604F1140004F175
:1011C00034086060C4F80880E760266109F034FBE9
:1011D0001C4B6361404609F02FFB1B4B6363384691
:1011E00009F02AFB04F5805303F5E870174AC3F8A9
:1011F000882104F03BF9224607F14801304604F00B
:1012000065F8304601F048FC114824F0B3F928464F
:1012100023F081FA0F4802B0BDE8F041FFF7D2BBDE
:101220002C3701202C0400207C1200204C040020CC
:101230003004002008000020801200200824002034
:101240006C790208D078020804790208387902081B
:101250003D110008A4030020704700000148FFF77B
:10126000BFBB00BFA403002070B5274E274C284DFC
:10127000284B23603046FFF751FE284619F05AFCF0
:10128000254811F0ABFE254B2548DC6000224FF4C9
:101290008071C3E9131223491A63C3E91B1222495F
:1012A0009A86C3E91F012149C3F8841020492148C7
:1012B00083F85C20C3E90422C3E90622C3E90822BB
:1012C000C3E90A22C3E90F22C3E91122C3E91522A7
:1012D000C3E918229A6683F874209A67C3E9016506
:1012E0000B60F02101801448018014484FF4A07174
:1012F00001801348018013490A70012283F83820C5
:10130000114A1A6070BD00BFD80400207812002076
:101310004C040020E465020830040020A4030020EF
:101320000000010101000001000450001A00140037
:10133000D0360120CC360120C8360120CA36012023
:10134000C6360120C2360120947702080148FFF713
:101350007BBC00BFD804002000207047818070470C
:10136000C180704701817047418170477047704765
:1013700070477047704710B4C4880368121B848894
:101380005B6D091B12B25DF8044B09B218474FF6AA
:10139000FF7383814FF0FF3303621368C3611060F2
:1013A0007047002070478B8883800120704770470A
:1013B00080F82610704790F82600704710B500227C
:1013C000B1F90840B1F90A10028042808480C180DE
:1013D00010BD0022028042808280C2807047017767
:1013E000704780ED080A704780F82410704780F835
:1013F0002510704701207047983070478C30704737
:10140000843070477047704770470000034B90224C
:1014100083F85A2383F85823704700BF00E100E0A7
:10142000094A0A49D3680A48C3F30A03013B9BB23D
:101430000B801169C1F30A01013901801364536BF8
:1014400043F001035363704700680140C225002048
:10145000C0250020014BD3F8AC0070470068014064
:10146000024B0122C3F8AC105A6270470068014079
:1014700010B52C21044623F040F9204610BD10B5CC
:10148000BC21044623F039F9204610BD70B504464E
:1014900009F0D5FC23689D6E10F082FB01462046C2
:1014A000A8472368054AD3F88C502046AC46002351
:1014B000BDE87040A2F51631604700BF00B004D00F
:1014C00009F0A4BC09F0AEBC09F069BC09F0D5BDB7
:1014D00090F8252012B103685B691847704790F8AF
:1014E00025201AB190F8242002B11860704700003E
:1014F000034B4FF080629A604FF080729A607047A1
:1015000000E100E0084B4FF08062C3F88820BFF391
:101510004F8FBFF36F8F4FF08072C3F88820BFF3F7
:101520004F8FBFF36F8F704700E100E070B500236D
:10153000124E8380124B0360336893F85C2005469B
:101540000AB1186D00B9986803681B6B9847336837
:10155000B0FA80F4186D640930B103681B6B9847CA
:10156000002808BF44F001042CB9064B064A07487E
:101570002C2123F0E1FF284670BD00BFD0360120AA
:1015800080790208B16902080F6A0208486A0208F5
:1015900070B5254E3568BFF35B8F15F0010540D15E
:1015A000304623F0ACF800283BD0204C204B25617E
:1015B00004F13400C4E90035C4E90255E584A562AC
:1015C000A58511F0F2FF04F158000CF0B9FC194B9D
:1015D000A3652046184B40F8843BFFF7A7FF174B45
:1015E000C4F884302433C4F88C304FF4C803C4E901
:1015F00028350023C4F8AC30C4F8B030C4F8B43097
:10160000C4F8B8300E480F4BC4F89050C4F89C5042
:10161000C4F8A850C4F8983023F0ACFF304623F04B
:101620007AF8024870BD00BFC4250020C8250020FC
:101630007C840208A0790208187A02083084020823
:10164000091400081084020838B5184C23685BB3ED
:10165000174B184A1B6C11888B4216D1164B1988F0
:1016600005F024FE236893F86E200025013283F8EC
:101670006E2083F88050FFF7BBFA20680AF096F9D5
:101680002846BDE83840FFF7DFB805F00FFE2468B4
:10169000236820461B6A9847012384F88030002085
:1016A000BDE83840FFF7FAB838BD00BFD03601209A
:1016B00000680140C2250020C025002007B5064B68
:1016C000ADF806001B68054801220DF1060106F081
:1016D0008DFB03B05DF804FB0C000020CC2600203D
:1016E00008B5144C144E154D0421204604F0EEFFAD
:1016F000B0FA80F0400930700821204604F0E6FF7F
:10170000B0FA80F0400928701021204604F0DEFF76
:101710000B4BB0FA80F0400918702021204604F0ED
:10172000D5FF084BB0FA80F0400918700A2007F086
:1017300017F8D9E7001002408B2600208A260020E7
:10174000892600208826002030B595B0102200217F
:101750000AA824F0F8F81422002103A824F0F3F8D2
:1017600000241E4B01941A6C42F080521A641B6CC8
:1017700003F080530193019B194B02941A6842F4C1
:1017800040421A601B6803F4404302930122029B0B
:101790004FF48033CDE9082302254FF4800308215C
:1017A000CDE90E534FF4B473CDE9101308A8042308
:1017B0001393129505F0D2FD05F096FD0F23CDE9A8
:1017C00003354FF4A0504FF48053CDE906030521B3
:1017D00003A8059405F09EFF15B030BD0038024007
:1017E0000070004080B59AB004F0F0FCFFF7ACFF49
:1017F000142200210DA824F0A6F80024C84B009460
:101800001A6BC848DFF8588342F010021A631A6B4B
:1018100002F010020092009A01941A6B42F020022A
:101820001A631A6B02F020020192019A02941A6B59
:1018300042F080021A631A6B02F080020292029A4E
:1018400003941A6B42F004021A631A6B02F004024A
:101850000392039A04941A6B42F001021A631A6B02
:1018600002F001020492049A05941A6B42F00202FB
:101870001A631A6B02F002020592059A06941A6B1B
:1018800042F040021A631A6B02F040020692069A76
:1018900007941A6B42F008021A631B6B03F00803EB
:1018A000224607933C21079B04F016FF9E48012225
:1018B000022104F011FF22469B48042104F00CFF92
:1018C00022469A484FF4405104F006FF01260323B4
:1018D0003C25944810930DA90227CDE90D560F948D
:1018E00004F010FE90480DA9CDE90D76CDE90F4426
:1018F00004F008FE04238C480DA9CDE90D36CDE98E
:101900000F4704F0FFFD4FF4405388480DA9CDE97F
:101910000D36CDE90F4704F0F5FD0DA981480F966E
:10192000CDE90D5404F0EEFD8148824B824D0360F9
:1019300004F0DEFCDFF82CE2804B2C62C5E900E30A
:1019400028464FF48043C5E90434C5E90244C5E99B
:10195000064405F0CFF81021284605F013FB214678
:101960002846774D05F02DFB4FF48273C5E90083BF
:101970004FF400791823C5E9069328460A23C5E9E0
:101980000244C5E90444C5E90844AC62EB6206F0D0
:10199000D1F98F232246394663488DF824308DF8DB
:1019A000344004F099FE32464FF47A7309A9284670
:1019B00006F01CFA4FF47A7332460DA9284606F059
:1019C000C1FB3246394658485E4D04F085FE9DF80D
:1019D0003430D32B04BF5C4B1E705C4B0126C5E931
:1019E0000036102240230024C5E904234FF4C073BD
:1019F000C5E906344FF40063C5E908344FF40053D9
:101A000002274FF00409AB624FF0030A07230DA928
:101A10002846CDE90D73CDE90F934FF00808C5E9CD
:101A20000249CDE911A7139706F068F84FF6FF7247
:101A300009A92846CDE90A86089409960C9406F06F
:101A40007DF8304604F0EEFB4FF6FF7209A92846F8
:101A5000CDE90978CDE90B6406F070F84FF6FF7216
:101A600009A92846CDE909A8CDE90B9406F066F846
:101A70004FF40C730893089B0C934FF6FF7209A95F
:101A80002846CDE909980B9606F058F840F26A51BD
:101A9000284606F071F834220DEB0200214623F0AF
:101AA00052FF2B4D2B4B2C61C5E900340923C5E9AE
:101AB00005361D23C5E9073A40F20D1140F24313E4
:101AC000C5E9091340F2171040F24713C5E90B03AB
:101AD0002846C5E90244AC8685F8364005F004FB8B
:101AE000FF214FF4806CF022CDE912140521CDE9DD
:101AF00014C14FF4A0730DA9CDE90E24CDE916420F
:101B000028462246144D1893CDE910370D94ADF8B0
:101B100064408DF8664005F09BFB104B2B6023E082
:101B2000003802400010024000080240000C024051
:101B30006028002000300240CC270020A086010051
:101B4000CC260020982600208C260020400100A0F2
:101B50002427002000680140842600201400002073
:101B600000500140005C00401B6898472B68154DF1
:101B7000DB689847144B2846C5E90034C5E9027470
:101B8000C5E90A47C5E90C4404F0C2FB31462846C2
:101B900004F074FCFEF78CFDFEF789FD06F070FD85
:101BA0000A4A0B48214606F097FD0A4B0A4A18607C
:101BB00021460A4806F090FD094B186006F072FDB8
:101BC000FEE700BF2028002000B00240807A020813
:101BD000E1160008942600205C7A0208BF0600087F
:101BE00090260020704770477FB5094B8DF817206D
:101BF0001B6802930DF117020123009201930A461C
:101C00000146044805F01EF807B05DF804FB00BF6C
:101C100010000020CC2700207FB500238DF817305E
:101C2000084B1B6802930A4601230DF1170100912E
:101C300001930146044805F095F89DF8170007B098
:101C40005DF804FB10000020CC2700201FB5084CD5
:101C500024680092CDE901340A4601230146054873
:101C600005F080F8003818BF012004B010BD00BF97
:101C700010000020CC27002004F0D4BA10B5064C88
:101C800000222046042104F027FD20460122BDE861
:101C90001040042104F020BD0008024038B50B4D6F
:101CA000044601220A484FF4005104F015FD0022B9
:101CB0000421284604F010FD2046FFF7FFFC2846CB
:101CC0000122BDE83840042104F006BD00080240AE
:101CD000000C024038B50B4D044600220A484FF470
:101CE000005104F0F9FC00220421284604F0F4FC21
:101CF0002046FFF7E3FC28460122BDE838400421D6
:101D000004F0EABC00080240000C0240F7B5144E93
:101D1000144F05460C4630460022042104F0DCFC3A
:101D200000224FF40051384604F0D6FC2846FFF755
:101D3000C5FC0D4B0D481B68224601A906F002FAAE
:101D4000384601224FF40051019C04F0C5FC304696
:101D50000122042104F0C0FC204603B0F0BD00BF06
:101D600000080240000C02400C000020CC2600209D
:101D700004F058BA0268034B9A4201D104F040BA09
:101D8000704700BF001000407047000082B00E4B4B
:101D900000220092596C41F480415964596C01F45D
:101DA0008041009100990192196C41F080511964B1
:101DB0001B6C03F080530193019B0F216FF0010016
:101DC00002B004F055BA00BF003802400268094B67
:101DD0009A4282B00BD100230193074B1A6B42F455
:101DE00080521A631B6B03F480530193019B02B072
:101DF000704700BF003002400038024007B50F4B6B
:101E000002689A4216D10022A3F5F0430192196BA1
:101E100041F4000119631B6B03F4000301930521D6
:101E20005A20019B04F024FA5A2003B05DF804EB19
:101E300004F050BA03B05DF804FB00BF00B00240EC
:101E40002DE9F043044689B01422002103A823F0B1
:101E50007AFD2268244B9A4243D1244C2448002521
:101E60000095236B43F004032363236B03F0040307
:101E70000093009B0195236B43F001032363236BC5
:101E800003F001030193019B4FF012094FF400731B
:101E90004FF001080327042603A9CDE90339CDE952
:101EA0000587079604F02EFB4FF4807311480796C0
:101EB00003A9CDE90339CDE9058704F023FB029599
:101EC000236C43F400032364236C03F400030293A4
:101ED000029B236A43F400032362236A23F4000372
:101EE000236209B0BDE8F083005C00400038024086
:101EF0000008024000000240F0B599B004461422E8
:101F0000002107A823F01FFD30220DEB0200002165
:101F100023F019FD22685E4B9A4240F0B7800823F7
:101F20000C93C0231093042312930CA84FF4003396
:101F3000159305F0B7FC08B1FFF726FF554B56483F
:101F4000002400945A6C42F080625A645A6C02F089
:101F500080620092009A01941A6B42F020021A6388
:101F60001A6B02F020020192019A02941A6B42F05D
:101F700001021A631A6B02F001020292029A0394A0
:101F80001A6B42F002021A631A6B02F00202039209
:101F9000039A04941A6B42F040021A631A6B02F01F
:101FA00040020492049A05941A6B42F004021A63E8
:101FB0001A6B02F004020592059A06941A6B42F01D
:101FC00008021A631B6B03F00803069302250E2612
:101FD000069B0B964FF4806307A9CDE90735CDE941
:101FE000094504F08FFA41F658032C480B9607A9CF
:101FF000CDE907350927CDE9094504F083FA032324
:1020000027480B9707A9CDE90735CDE9094504F025
:1020100079FA4FF4706322480B9607A9CDE907358A
:10202000CDE9094504F06EFA4FF40C631D480B9698
:1020300007A9CDE90735CDE9094504F063FAC023C6
:1020400019480B9607A9CDE90735CDE9094504F0F4
:1020500059FA082315480B9607A9CDE90735CDE9AC
:10206000094504F04FFA4FF4A0530E480B9707A907
:10207000CDE90735CDE9094504F044FA5820224658
:10208000052104F0F5F8582004F024F919B0F0BD4A
:102090000068014000380240001402400000024085
:1020A000000402400018024000080240000C0240F8
:1020B00010B5044688B01422002103A823F043FC85
:1020C0002268144B9A4223D103F568430021019101
:1020D0005A6C114842F480125A645A6C02F480120D
:1020E0000192019A02911A6B42F020021A631B6B53
:1020F00003F020030293029B4FF46072022303213A
:10210000CDE903230523CDE9061303A904F0FAF969
:1021100008B010BD00500140001402402DE9F0410C
:1021200086B0002303932B4B1C68002C4FD14FF03B
:102130000108C3F80080284B00949A6B274842EAB4
:1021400008029A639B6B03EA0803009302270326A5
:102150000C25009B01A94FF63F03CDE90137CDE9DE
:10216000046504F0CFF91E48059501A9CDE9018762
:10217000CDE9034604F0C6F948F233131948059532
:1021800001A9CDE90137CDE9034604F0BBF94FF6CB
:1021900083731548059501A9CDE90137CDE90346BB
:1021A00004F0B0F94CF203731048059501A9CDE98C
:1021B0000137CDE9034604F0A5F960230C480595E5
:1021C00001A9CDE90137CDE9034604F09BF906B03A
:1021D000BDE8F08168280020003802400014024069
:1021E000000802400018024000100240000C0240AB
:1021F0000004024070B588B000230293204B1A6C93
:1022000042F010021A641B6C03F01003029305469F
:1022100001A903A8029B05F027FB069B4BBB05F019
:1022200013FB184E184B336040F2E733F360174B43
:10223000B0FBF3F3013B7360304600233361B360BE
:10224000B36106F049F9044680B9304606F01EF83D
:10225000044658B9362004F03DF80F2D0DD822461B
:102260002946362004F004F8094B1D60204608B0CA
:1022700070BD05F0E9FA4000D3E70124F6E700BF9E
:10228000003802406C2800200010004040420F003F
:102290007C0000207047FEE7FEE7FEE7FEE77047A0
:1022A000014806F031B800BF6C280020014804F056
:1022B00072BF00BF24270020014804F055B800BFBA
:1022C000202800200120704708B523F09BFB16232F
:1022D00003604FF0FF3008BD08B523F093FB1623D1
:1022E0000360FEE770B50D4614460E46731B9C4214
:1022F00001DC204670BDAFF3008006F8010BF5E766
:1023000070B50D4614460E46731B9C4201DC2046F8
:1023100070BD16F8010BAFF30080F5E74FF0FF300A
:1023200070474FF400534B60002070470120704706
:10233000002070470A4A116808B5034609B90949DF
:1023400011601068694603448B4206D923F05AFB9A
:102350000C2303604FF0FF3008BD1360FCE700BFA3
:10236000B428002008440120704710B50421044619
:1023700022F0C3F9204610BD012908B506D0022974
:1023800008D059B902F074FF006808BD02F070FF70
:102390004068FAE702F06CFF8068F6E70020F4E797
:1023A00000487047B87A02080420704713B500242B
:1023B00051B1036801948DF8034001AA9C680DF1A6
:1023C0000303A04702B010BD0846FBE7C089704771
:1023D000008A7047C088704780887047807A00F014
:1023E0007F007047807AC009704700207047000066
:1023F0009FED010A704700BF00000000704710B554
:102400000821044622F079F9204610BD7047704734
:1024100000F598730868496803C3704770477047B0
:102420004160704770477047064BC0F84C3100233D
:10243000C0F8503100F5A273C0F84801C0F840312F
:10244000704700BF61310008012303727047704775
:10245000704770477047704710B4C26841685410A5
:10246000034601EB6200D20748BF0A599B685DF83A
:10247000044B48BFD35818470346406830B19A68A8
:102480001AB9D86800F0010070470120704710B5F4
:102490000C21044622F031F9204610BD10B5102160
:1024A000044622F02AF9204610BD10B54FF4AE7153
:1024B000044622F022F9204610BD10B54021044602
:1024C00022F01BF9204610BD10B54021044622F031
:1024D00014F9204610BD10B54021044622F00DF934
:1024E000204610BD10B54021044622F006F92046D2
:1024F00010BD10B50FF054FB0368BDE81040DB6B56
:1025000018470000054B1B7801462BB1406818B1F5
:1025100003680C315B6E1847704700BFC33601205B
:10252000054B1B7801462BB1406818B103680C318C
:102530005B6E1847704700BFC3360120054B1B7800
:1025400001462BB1406818B103680C315B6E184727
:10255000704700BFC3360120054B1B7801462BB1E5
:10256000406818B103680C315B6E1847704700BFB4
:10257000C3360120037A70B50546BBB940680368CD
:10258000DB69984704463CB96868036805F10C01AB
:102590001B6EBDE870401847A1886B8FC91A23686D
:1025A00020461B6B09B29847A469ECE770BD037A1B
:1025B00070B50546BBB940680368DB6998470446B7
:1025C0003CB96868036805F10C011B6EBDE87040FA
:1025D0001847A1886B8FC91A236820461B6B09B264
:1025E0009847A469ECE770BD037A70B50546BBB99E
:1025F00040680368DB69984704463CB9686803682B
:1026000005F10C011B6EBDE870401847E1886B8F27
:10261000C91A236820465B6B09B29847A469ECE7A6
:1026200070BD037A70B50546BBB940680368DB69C5
:10263000984704463CB96868036805F10C011B6EB5
:10264000BDE870401847E1886B8FC91A236820469F
:102650005B6B09B29847A469ECE770BD10B50446FE
:10266000D0F8400158B10368DB68984738B1D4F816
:10267000400103689B6898470023C4F8403110BDAF
:1026800070B5044690F8390094F838300130C0B283
:10269000984284F8390005D901232372002384F875
:1026A000393070BDB4F93A20002111F078FCC3072D
:1026B00006D500284FF6FF73C8BF0123184400B2A7
:1026C000638AC01AA08760680368DB69984705467B
:1026D0002DB960680368BDE870405B691847E988F8
:1026E000A38F19442B6828465B6B09B29847AD69E4
:1026F000EEE770B5044690F8390094F838300130B0
:10270000C0B2984284F8390005D90123237200230E
:1027100084F8393070BDB4F93A20002111F03FFC43
:10272000C30706D500284FF6FF73C8BF012318441E
:1027300000B2638AC01AA08760680368DB699847A3
:1027400005462DB960680368BDE870405B691847AD
:10275000E988A38F19442B6828465B6B09B2984718
:10276000AD69EEE770B5044690F8390094F838305A
:102770000130C0B2984284F8390005D90123237290
:10278000002384F8393070BDB4F93A20002111F0EB
:1027900006FCC30706D500284FF6FF73C8BF012308
:1027A000184400B2238AC01AA08760680368DB69F6
:1027B000984705462DB960680368BDE870405B69BD
:1027C0001847A988A38F19442B6828461B6B09B2A8
:1027D0009847AD69EEE770B5044690F8390094F873
:1027E00038300130C0B2984284F8390005D901234D
:1027F0002372002384F8393070BDB4F93A200021E7
:1028000011F0CDFBC30706D500284FF6FF73C8BFF4
:102810000123184400B2238AC01AA08760680368A5
:10282000DB69984705462DB960680368BDE87040CC
:102830005B691847A988A38F19442B6828461B6B2E
:1028400009B29847AD69EEE72DE9F0411D460368EE
:10285000BDF918701B6B044616469847236831462D
:1028600020465B6B98472368294620469B6B984718
:10287000236839462046DB6BBDE8F041184700006D
:102880002DE9F74FD0E9556A0746B06803681B6A1F
:102890009847B0F51F7F05D2544B554AA3215548A0
:1028A00022F04AFE706803681B6A98470F2803D815
:1028B000514B4F4AA421F2E7F06803681B6A98471E
:1028C0003F2803D84D4B4A4AA521E8E70FF068F9A5
:1028D000DFF8389104300FF088F9D9F8000010B112
:1028E0000368DB689847D9F8000010B103681B68DB
:1028F0009847DFF81C81D8F8000010B103685B69C5
:102900009847D7F83C0110B103685B689847D8F83E
:10291000000010B103681B689847D7F83C0110B15C
:1029200003689B689847F068036800215B6A9847D2
:1029300005460022324B4260027245F80C3B0446C9
:1029400028460BF097FB142323872E4B1B7800227D
:10295000A287002B35D101232372B06803680021C0
:102960005B6A9847054602F02DFE706803680021F7
:102970005B6A98472946064602F0DEFD331DC7F81C
:102980003C61C9F80040C8F80050CAF800302B6814
:10299000C6F808A02846DB68EE63984733683046DF
:1029A0001B6898472146284611F0F3FA2368204611
:1029B0001B69984723685B69204603B0BDE8F04F68
:1029C0001847114BDFF84CB0B3F900300093BBF956
:1029D000003011462846FFF737FF28460BF0C6FAAD
:1029E000BBF800305B426387B7E700BFBF6A0208ED
:1029F0004D6B0208366C02087D6C0208206D0208DF
:102A0000F87B0208C3360120CA360120183701209E
:102A10001C370120CC360120044B1B6893F85C2046
:102A20000AB1186D00B99868704700BFD036012010
:102A3000F8B5174604460E460FF078F9124B1C60A5
:102A4000124B2360124B0025C4E95135114BC4E9E8
:102A500053551868036801219B68C4E94F55C4E9C0
:102A600055769847284602F0B7FBFFF7D5FF19F0D7
:102A700010FFFFF7D1FF19F087FFFFF7CDFF19F027
:102A80008FFF2046F8BD00BF20370120387B0208A9
:102A9000207B0208D0360120064BC0F84C310023C1
:102AA000C0F8503100F5A273C0F84801C0F84031B9
:102AB000704700BF61310008064BC0F84C3100235D
:102AC000C0F8503100F5A273C0F84801C0F8403199
:102AD000704700BFD12F0008064BC0F84C310023CF
:102AE000C0F8503100F5A273C0F84801C0F8403179
:102AF000704700BF3D2E0008064BC0F84C31002344
:102B0000C0F8503100F5A273C0F84801C0F8403158
:102B1000704700BF81280008064BC0F84C310023E5
:102B2000C0F8503100F5A273C0F84801C0F8403138
:102B3000704700BF49340008064BC0F84C310023F1
:102B4000C0F8503100F5A273C0F84801C0F8403118
:102B5000704700BF0D330008064BC0F84C3100230E
:102B6000C0F8503100F5A273C0F84801C0F84031F8
:102B7000704700BFE92C0008064BC0F84C31002319
:102B8000C0F8503100F5A273C0F84801C0F84031D8
:102B9000704700BFA12B000803685B6A184700005C
:102BA0002DE9F14FD0E9556A0746B06803681B6A02
:102BB0009847B0F5F47F05D2434B444AA3214448DB
:102BC00022F0BAFC706803681B6A9847172803D87C
:102BD000404B3E4AA421F2E7F06803681B6A98471D
:102BE0000B2803D83C4B394AA521E8E70EF0D8FF63
:102BF000DFF8EC9004300EF0F8FFD9F8000010B1C7
:102C00000368DB689847D9F8000010B103681B68B7
:102C10009847DFF8D080D8F8000010B103685B69EE
:102C20009847D7F83C0110B103685B689847D8F81B
:102C3000000010B103681B689847D7F83C0110B139
:102C400003689B689847F0680021FFF7A5FF4FF0E5
:102C5000000B224BC0F804B0044680F808B00360B3
:102C6000B068036859465B6A9847054602F0DAFB8C
:102C70007068036859465B6A98472946064602F021
:102C8000ADFB331DC7F83C61C9F80040C8F80050DF
:102C9000CAF800302B68C6F808A02846DB68EE6347
:102CA0009847336830461B6898472146284611F0FC
:102CB00070F9236820461B69984723685B692046A2
:102CC00001B0BDE8F04F1847BF6A0208C36D0208A3
:102CD000366C02087D6C0208206D02088C7B0208AD
:102CE000183701201C3701202DE9F14FD0E9556A32
:102CF0000746B06803681B6A9847B0F5117F05D294
:102D0000434B444AA321444822F016FC70680368F0
:102D10001B6A98470F2803D8404B3E4AA421F2E78C
:102D2000F06803681B6A98470B2803D83C4B394A64
:102D3000A521E8E70EF034FFDFF8EC9004300EF048
:102D400054FFD9F8000010B10368DB689847D9F840
:102D5000000010B103681B689847DFF8D080D8F8EE
:102D6000000010B103685B699847D7F83C0110B1C7
:102D700003685B689847D8F8000010B103681B68C7
:102D80009847D7F83C0110B103689B689847F068F2
:102D90000021FFF701FF4FF0000B224BC0F804B0F9
:102DA000044680F808B00360B068036859465B6A5F
:102DB0009847054602F0CAFA7068036859465B6A8C
:102DC00098472946064602F099FA331DC7F83C6138
:102DD000C9F80040C8F80050CAF800302B68C6F89F
:102DE00008A02846DB68EE639847336830461B68C6
:102DF00098472146284611F0CCF8236820461B69E5
:102E0000984723685B69204601B0BDE8F04F18473A
:102E1000BF6A02089B6E0208366C02087D6C0208CD
:102E2000206D02088C7B0208183701201C37012016
:102E300003685B6A184703685B6A18472DE9F74F18
:102E4000D0E9556A0746B06803681B6A9847B0F531
:102E5000C07F05D2534B544AA321544822F06CFB47
:102E6000706803681B6A98470F2803D8504B4E4A76
:102E7000A421F2E7F06803681B6A98473F2803D84B
:102E80004C4B494AA521E8E70EF08AFEDFF8349161
:102E900004300EF0AAFED9F8000010B10368DB6818
:102EA0009847D9F8000010B103681B689847DFF80D
:102EB0001881D8F8000010B103685B699847D7F80B
:102EC0003C0110B103685B689847D8F8000010B166
:102ED00003681B689847D7F83C0110B103689B68EA
:102EE0009847F068036800215B6A9847054600220E
:102EF000314B4260027245F80C3B044628460BF009
:102F0000B9F8142323872D4B1B780022A287002BAE
:102F100033D1012323720021B068FFF789FF0546F2
:102F200002F0F0FA70680021FFF785FF2946064697
:102F300002F0C6FA331DC7F83C61C9F80040C8F872
:102F40000050CAF800302B68C6F808A02846DB6895
:102F5000EE639847336830461B68984721462846F9
:102F600011F017F8236820461B69984723685B69AE
:102F7000204603B0BDE8F04F1847DFF850B0BBF96A
:102F8000003000930E4B1146B3F900302846FFF78E
:102F90005BFC28460AF0EAFFBBF800305B4263871F
:102FA000B9E700BFBF6A02086F6F0208366C0208FB
:102FB0007D6C0208206D0208D47B0208C336012014
:102FC000CC360120183701201C370120CA360120D9
:102FD0002DE9F74FD0E9556A0746B06803681B6AC8
:102FE0009847B0F5C07F05D2524B534AA3215348AE
:102FF00022F0A2FA706803681B6A98470F2803D86A
:103000004F4B4D4AA421F2E7F06803681B6A9847CA
:103010003F2803D84B4B484AA521E8E70EF0C0FDF6
:10302000DFF8309104300EF0E0FDD9F8000010B167
:103030000368DB689847D9F8000010B103681B6883
:103040009847DFF81481D8F8000010B103685B6975
:103050009847D7F83C0110B103685B689847D8F8E7
:10306000000010B103681B689847D7F83C0110B105
:1030700003689B689847F068036800215B6A98477B
:1030800005460022304B4260027245F80C3B044674
:1030900028460AF0EFFF142323872C4B1B780022CD
:1030A000A287002B33D1012323720021B068FFF7E0
:1030B000BFFE054602F026FA70680021FFF7BBFE4E
:1030C0002946064602F0FCF9331DC7F83C61C9F8F1
:1030D0000040C8F80050CAF800302B68C6F808A0B5
:1030E0002846DB68EE639847336830461B6898478C
:1030F0002146284610F04DFF236820461B6998475B
:1031000023685B69204603B0BDE8F04F1847104BB9
:10311000DFF848B0B3F900300093BBF90030114636
:103120002846FFF791FB28460AF020FFBBF8003045
:103130006387BAE7BF6A020855700208366C020856
:103140007D6C0208206D0208B07B0208C3360120A6
:10315000CA360120183701201C370120CC36012047
:103160002DE9F14FD0E9556A0746B06803681B6A3C
:103170009847B0F5C07F05D2424B434AA32143484C
:1031800022F0DAF9706803681B6A98470F2803D8A1
:103190003F4B3D4AA421F2E7F06803681B6A984759
:1031A0000B2803D83B4B384AA521E8E70EF0F8FC82
:1031B000DFF8E89004300EF018FDD9F8000010B1E7
:1031C0000368DB689847D9F8000010B103681B68F2
:1031D0009847DFF8CC80D8F8000010B103685B692D
:1031E0009847D7F83C0110B103685B689847D8F856
:1031F000000010B103681B689847D7F83C0110B174
:1032000003689B689847F0680021FFF7C5FC4FF002
:10321000000B214B036004465946C0F804B080F807
:1032200008B0B068FFF704FE054602F06BF9594696
:103230007068FFF700FE2946064602F041F9331D8B
:10324000C7F83C61C9F80040C8F80050CAF800301F
:103250002B68C6F808A02846DB68EE6398473368F9
:1032600030461B6898472146284610F092FE236896
:1032700020461B69984723685B69204601B0BDE87A
:10328000F04F1847BF6A02083A710208366C02080C
:103290007D6C0208206D02088C7B02081837012023
:1032A0001C370120F7B505460026144B4660067210
:1032B00045F80C3B044628460F460AF0DBFE104B4F
:1032C00084F838701B7884F83960A68723B9012305
:1032D0002372204603B0F0BD0A4FB7F900300093C7
:1032E000094B3246B3F9003031462846FFF7ACFAB5
:1032F00028460AF03BFE3B886387EAE71C7C02080D
:10330000C3360120CA360120CC3601202DE9F04712
:10331000D0E9556A0746B06803681B6A984741F2CE
:103320004B13984205D8414B414AA321414822F012
:1033300003F9706803681B6A98470F2803D83E4B4F
:103340003B4AA421F2E7F06803681B6A98473F28CC
:1033500003D83A4B364AA521E8E70EF021FCDFF806
:10336000E09004300EF041FCD9F8000010B1036881
:10337000DB689847D9F8000010B103681B689847CC
:10338000DFF8C080D8F8000010B103685B69984787
:10339000D7F83C0110B103685B689847D8F8000083
:1033A00010B103681B689847D7F83C0110B1036857
:1033B0009B689847F068036800215B6A984714216E
:1033C0000446FFF76FFFB068036800215B6A984707
:1033D000054602F043F97068036800215B6A98476C
:1033E0002946064602F008F9331DC7F83C61C9F8C2
:1033F0000040C8F80050CAF800302B68C6F808A092
:103400002846DB68EE639847336830461B68984768
:103410002146284610F0BDFD236820461B699847C9
:10342000236820465B69BDE8F0471847BF6A020879
:103430000C720208366C02087D6C0208206D0208CE
:10344000183701201C3701202DE9F047D0E9556AD3
:103450000746B06803681B6A984741F2FB0398422D
:1034600005D8414B414AA321414822F065F87068D4
:1034700003681B6A98470F2803D83E4B3B4AA42198
:10348000F2E7F06803681B6A98473F2803D83A4B75
:10349000364AA521E8E70EF083FBDFF8E090043020
:1034A0000EF0A3FBD9F8000010B10368DB68984761
:1034B000D9F8000010B103681B689847DFF8C08096
:1034C000D8F8000010B103685B699847D7F83C0151
:1034D00010B103685B689847D8F8000010B1036822
:1034E0001B689847D7F83C0110B103689B68984760
:1034F000F068036800215B6A984714210446FFF7CF
:10350000D1FEB068036800215B6A9847054602F067
:1035100083FA7068036800215B6A9847294606466B
:1035200002F03CFA331DC7F83C61C9F80040C8F806
:103530000050CAF800302B68C6F808A02846DB689F
:10354000EE639847336830461B6898472146284603
:1035500010F01FFD236820461B699847236820460A
:103560005B69BDE8F0471847BF6A0208F2720208BB
:10357000366C02087D6C0208206D020818370120A5
:103580001C370120806A704770477047704770474A
:10359000704730B5036885B06D460181D3F884303B
:1035A000014604462846984795E807003C3484E8DD
:1035B000070005B030BD30B5036885B06D46418168
:1035C000D3F88430014604462846984795E807001A
:1035D0003C3484E8070005B030BD00220280428000
:1035E0008280C280704780F83610704770B50368DB
:1035F00004461B6B154698472368294620465B6E98
:10360000BDE87040184700207047806C70477047D5
:10361000704770477047704790F82C304BB100F1FD
:103620006C021268C2653BB100F174031B6803664B
:10363000704700F16802F4E700F17003F6E730B478
:10364000C26844685510034604EB6200D20748BFC5
:1036500062599B6830BC48BFD3581847034640683E
:1036600030B19A681AB9D86800F00100704701209B
:10367000704790F82D3080F85A30704710B54C21C3
:10368000044621F03AF8204610BD10B578210446D2
:1036900021F033F8204610BD10B51021044621F06A
:1036A0002CF8204610BD10B54FF40B71044621F0E4
:1036B00024F8204610BD08B5FDF70AFF08BD10B577
:1036C0000446006B50B10368DB68984730B1206B4B
:1036D000036821469B68BDE81040184710BD0B7970
:1036E00070B590F82C6004460D460BB916B170BD4C
:1036F000002EFCD0B3FA83F35B0984F82C302368E6
:103700002046D3F88C309847236820465B69984759
:10371000002EECD02B79012BE9D123682046D3F879
:103720008830BDE870401847036870B55E6B124B77
:103730001B6804468DB22BB9104B114A6C211148FD
:1037400021F0FAFE1049828D0988914203D80F4B6F
:103750000B4A6D21F3E713F812200D4B1B6853F849
:10376000220003681B6B9847291A3346204609B28A
:10377000BDE87040184700BF30370120DC730208F5
:103780001E7402085974020824370120A07402082C
:10379000283701209830884208B505D10EF000FA8C
:1037A000BDE80840FFF798B908BD00224FF0FF318F
:1037B000C0E9002182607047074A02600022C0E928
:1037C0000122C0E90322C0E90522C0E907224FF423
:1037D00080728284704700BFF889020870B5036860
:1037E00004461B6B154698472368294620465B6BA9
:1037F000BDE870401847000010B52622044600219D
:1038000022F0A1F82046FFF7D7FF044B2360FF23E7
:1038100084F826300023A362204610BDE487020806
:1038200010B526220446002122F08DF82046FFF72D
:10383000C3FF0A4B23600A4BA3624FF6FF73A385B5
:103840004FF47F020023C4E90C3223874FF0FF328C
:10385000C4E91023E363204610BD00BF548702086B
:10386000107B02082DE9F04F04468DB02646002556
:1038700010F0F4F9B64BE56346F8403B3046FFF7ED
:10388000BBFF04F16C0304F1980A18460593FFF797
:10389000B3FF5046FFF790FF4FF47F43A4F8C430C6
:1038A0004FF0010304F1CC0884F8BC30A94BC4F8F4
:1038B00098304046C4F8C050C4F8C850FFF79CFF89
:1038C000A54BC4F8CC302A4640462946C4E94055A9
:1038D000C4E94255C4F8F850A4F8FC50FFF77EFF45
:1038E0004146504606F0BBFF04F5887303930AA9CE
:1038F0004FF6FF730398ADF828300AF039FC04F551
:103900009E7318460493FFF78BFF04F5C273934F21
:103910000293184604F5E87BFFF782FFC4F8847130
:10392000C4F8CC515846FFF77BFF8D4BC4F8D071DB
:10393000C4E987348B4BC4F81852C4E989354FF475
:10394000A0734FF07F49271D2A4630460093294631
:10395000F023FEF779FF3146C4F86890384606F048
:103960007EFF4FF4A0732A46059800932946F02362
:103970003226FEF769FF0599C4F89490384606F0A0
:103980006EFF2A462946334640460096FEF75CFF06
:103990004FF005034FF0FF38A4F8FC30724BC4F829
:1039A0000091C4E94189C4F80C31D4F8989050468C
:1039B000FFF732FE84F8C550D9F89030DFF8C49193
:1039C0005046984704F507734FF48772C4F8C8301F
:1039D000BE21334600965046FEF736FF5146384624
:1039E00006F03DFF4FF001030398ADF828300AA917
:1039F0000BF061FA33464FF4877203980096BE21AC
:103A0000FEF722FF039829460AF048FB1F2384F89B
:103A100038310399384606F022FF06AE5B2204983F
:103A20002946FFF7DBFE0499C4F86C813046A4F800
:103A300070510AF0D1FC96E8070004F5BC7383E8E6
:103A4000070007230498ADF82C300AA9CDF8289078
:103A50000AF096FF0499384606F001FFC422029846
:103A60001521FFF7BBFED4F884310299D3F88430D6
:103A7000C4F8B4813046A4F8B851984796E80700D6
:103A800004F5E07383E80700384B1A682AB9384B0D
:103A9000384A6021384821F04FFD384A1288052AFB
:103AA00003D8374B334A6121F4E7DFF8DCA0052166
:103AB000DAF8000001F0CCFBC4F8CC0102980AF05F
:103AC0003FFF06220298ADF82C200AA9CDF82890D5
:103AD0000AF056FF0299384606F0C1FE99221421D9
:103AE0005846FFF77BFED4F8D021A4F80452D2F850
:103AF0008420C4F8008259463046904796E8070073
:103B00001A4B1B6804F5037585E80700002BBED02F
:103B10001A4B1B88032BC4D90321DAF8000001F0EB
:103B200097FBC4F8180258460AF00AFF04230AA9B2
:103B30005846ADF82C30CDF828900AF021FF3846D1
:103B4000594606F08CFE20460DB0BDE8F08F00BF50
:103B5000847D0208D07C02084C880208407C020860
:103B60006C7D020895370008FC7E00FF303701208D
:103B7000DC730208DE74020859740208243701203D
:103B8000A0740208107B02082C3701207047704790
:103B9000704730B4C26844685510034604EB6200B5
:103BA000D20748BF62599B6830BC48BFD3581847FA
:103BB0000346406830B19A681AB9D86800F001002D
:103BC00070470120704710B51021044620F095FD84
:103BD000204610BD10B54FF4F071044620F08DFD65
:103BE000204610BD9830884208B505D10DF0D8FFA9
:103BF000BDE80840FEF770BF08BD00002DE9F04F9A
:103C000004468DB0A146002510F028F8954BE563D9
:103C100049F8403B4846FFF7EFFD04F16C0304F11F
:103C2000980818460593FFF7E7FD4046FFF7C4FDE7
:103C30004FF47F43A4F8C4304FF0010384F8BC3044
:103C4000894BC4F8983004F1CC031846C4F8C0502E
:103C5000C4F8C8500493FFF7CFFD844BC4F8CC30B0
:103C60002A460498C4F8F8502946C4E94055C4E9E6
:103C70004255A4F8FC50FFF7B1FD4046049906F008
:103C8000EEFD04F58873039304F59E7B4FF6FF73F6
:103C90000AA90398ADF8283004F5C2770AF068FA4B
:103CA0005846FFF7BDFD3846FFF7BAFD704BC4F824
:103CB0008431704BC4F8CC51C4E974346E4BC4E900
:103CC00076354FF4A0734FF07F4A261D2A464846AA
:103CD00000932946F023FEF7B7FD4946C4F868A0D3
:103CE000304606F0BCFD4FF4A0732A4605980093B9
:103CF0002946F023FEF7A8FD0599C4F894A03046A4
:103D000006F0ADFD32230093294604982A46FEF7BB
:103D10009BFD05224FF0FF39A4F8FC20574AC4F858
:103D200000A14046C4E9419AC4F80C21D4F898A0F7
:103D3000FFF772FC84F8C550DAF89020DFF85CA138
:103D400040469047322304F5E872C4F8C820404644
:103D50004FF487720093BE21FEF776FD4146304650
:103D600006F07DFD4FF001030398ADF828300AA955
:103D70000BF0A1F832234FF4877200930398BE2111
:103D8000FEF762FD039829460AF088F91F2384F89C
:103D900038310399304606F062FD0DF118085B22B8
:103DA00029465846FFF71AFD59464046C4F86C911B
:103DB000A4F870510AF010FB98E8070004F5BC73F2
:103DC00083E8070002230AA95846ADF82C30CDF845
:103DD00028A00AF0D5FD5946304606F040FDC02225
:103DE0001B213846FFF7FAFCD4F88431C4F8B491AB
:103DF000D3F88430A4F8B85139464046984798E83B
:103E0000070004F5E07383E807001D4B1B682BB91E
:103E10001C4B1D4A60211D4821F08EFB1C4B1B884A
:103E20001BB91C4B184A6121F5E71B4B2946186842
:103E300001F00EFAC4F8CC0138460AF081FD4FF0CB
:103E400001030AA93846ADF82C30CDF828A00AF0B5
:103E500097FD3046394606F002FD20460DB0BDE81C
:103E6000F08F00BFD07D0208D07C02084C88020889
:103E7000407C0208B87D0208E53B0008FC7E00FF9C
:103E800030370120DC730208DE740208597402081E
:103E900024370120A07402082C370120107B02086F
:103EA000406A7047806A704770478A880B8810B5EF
:103EB000D20A4C88C1699BB251F8220043EA0443FC
:103EC000184410BD10B50446BAB1107B68B1537BDD
:103ED000D27A1B0203F4E0631A43236A03EB8203E2
:103EE0001A888A4202D193F9020010BD05D8013820
:103EF00080B204330028F3D1F7E70020F5E710B5CE
:103F00002C21044620F0F9FB204610BD30B58BB0C3
:103F10000446BDF860500895BDF85C5007959DF8C3
:103F2000505006959DF84C5005959DF848500495C5
:103F30009DF8445003959DF8405002959DF83C50E3
:103F40000195BDF8385000950FF0ECFB064B23604F
:103F5000159BE361169B2362199B63621A9BA36204
:103F600020460BB030BD00BF047E0208704770478A
:103F7000704730B4C26844685510034604EB6200D1
:103F8000D20748BF62599B6830BC48BFD358184716
:103F90000346406830B19A681AB9D86800F0010049
:103FA00070470120704710B51021044620F0A5FB92
:103FB000204610BD10B54FF4C071044620F09DFBA3
:103FC000204610BD38B500F1E003994204460D4685
:103FD00003D10DF0E5FDFEF79FFD04F59474A542B5
:103FE00005D10DF0DDFDBDE83840FEF785BD38BDDB
:103FF000F8B5194B018F1B888B4206462AD9174BFF
:104000001B682BB9164B174A17486C2121F094FAFC
:1040100013F81120154B1B6853F82250144B1868E5
:1040200001F016F92B6807469B6B284698472B68CA
:1040300004469B6C3946284698472B6814FB00F4CD
:104040005B6A394628469847A4B223181BB2A6F8E3
:104050004630F8BD0023FAE724370120303701202D
:10406000DC7302081E740208597402082837012004
:104070002C3701202DE9F04F04468DB0A2460025D3
:104080000FF0ECFD624BE5634AF8403B5046FFF70A
:10409000B3FB04F16C0318460393FFF7ADFB4FF439
:1040A0008073A4F8BC305B4BC4F898305A4BC4F80A
:1040B000C0304FF6FF7304F1E0094FF0FF38A4F869
:1040C000C4304FF47F0304F59477C4F8CC30C4E9CE
:1040D0002755C4E92955C4E92B55C4E92D55C4E930
:1040E0003685C4F8C850A4F8D050C4F8D450484617
:1040F0000BF06EF838460BF06BF8484BC4E95C34B3
:10410000474B4FF4A072C4E95E3529460092F02374
:104110002A465046FEF798FB261D4FF07F42A266C6
:104120005146304606F09BFB4FF4A072F0230398F3
:10413000009229462A46FEF787FB4FF07F4204F1A2
:10414000980B0399C4F89420304606F088FB13229C
:1041500058461621FFF742FB0DF1100A314BC4F807
:10416000C83059465046A4F8CC500AF035F99AE8C0
:10417000070004F1D40383E80700274B0A930AA938
:1041800010235846ADF82C300AF0FAFB5946304659
:1041900006F065FB4846A0224121FFF71FFB0AAA53
:1041A00009A94846ADF82450ADF828500AF0C5FCDE
:1041B0000F23A4F81831484604F5B87AFFF718FF22
:1041C00049463046C4E94788C4F808A106F047FBD1
:1041D0003846EA224121FFF701FB0AAA09A938461D
:1041E000ADF82450ADF828500AF0A7FC0E23A4F82F
:1041F00060313846FFF7FCFE3046C4E95988C4F800
:1042000050A1394606F02BFB20460DB0BDE8F08FDB
:10421000847E020854870208107B02086C7E020824
:10422000C53F0008FAFAFAFF7047704770477047B9
:1042300070477047704730B4C268446855100346F1
:1042400004EB6200D20748BF62599B6830BC48BF8C
:10425000D35818470346406830B19A681AB9D868ED
:1042600000F0010070470120704730B4C268446814
:104270005510034604EB6200D20748BF62599B68A1
:1042800030BC48BFD35818470346406830B19A68DD
:104290001AB9D86800F0010070470120704710B5C6
:1042A0001021044620F029FA204610BD10B5102137
:1042B000044620F022FA204610BD10B54FF41F71BD
:1042C000044620F01AFA204610BD38B500F1E0038C
:1042D000994204460D4606D10368DB6A98470DF003
:1042E0005FFCFEF729FC04F594739D4207D1236817
:1042F00020461B6B98470DF053FCFEF71DFC04F5A0
:10430000B8739D4209D1236820465B6B98470DF036
:1043100047FCBDE83840FEF70FBC38BD00F5DC7047
:10432000884208B505D10DF03BFCBDE80840FEF71A
:10433000C3BB08BD2DE9F04F044691B0A14600254E
:104340000FF08CFCB34BE56349F8403B4846FFF760
:1043500053FA04F16C0304F1980818460793FFF729
:104360004BFA29462622404621F0EDFA4046FFF757
:1043700023FAA94BC4F89830A84BC4F8C0304FF6C4
:10438000FF734FF0FF3604F1E002A4F8C4304FF49D
:104390007F03C4F8CC30C4E93665C4F8C850A4F82B
:1043A000D050C4F8D450104603920AF011FF04F51F
:1043B0009472104604920AF00BFF04F5B87204F5EB
:1043C000DC7A104605920AF003FF5046FFF7F4F935
:1043D0004FF47F434FF00102A4F8E43184F8DC216C
:1043E0008F4BC4F8B83104F5F672C4F8E051C4F844
:1043F000E85110460692FFF7FFF98A4BC4F8EC31FA
:104400002A460698C4F818522946C4E98855C4E9D2
:104410008A55A4F81C52FFF7E1F904F50C7B0699C4
:10442000504606F01CFA0EA95846ADF8386009F05F
:104430009FFE7D4BC4E997347C4BC4E999357C4B96
:10444000C4E99B347B4B4FF4A072C4E99D352946E7
:104450000092F0232A464846271DFEF7F5F94FF053
:104460007F42A2664946384606F0F9F94FF4A07239
:10447000F0230798009229462A46FEF7E5F94FF007
:104480007F420799C4F89420384606F0E8F91322D1
:1044900040461621FFF7A2F90DF12009664BC4F83A
:1044A000C83041464846A4F8CC5009F095FF99E839
:1044B000070004F1D40383E80700584B0E930EA9BC
:1044C0000D234046ADF83C300AF05AFA41463846D2
:1044D00006F0C5F9039887224121FFF77FF90EAA5C
:1044E0000DA90398ADF83450ADF838500AF025FB0B
:1044F0000C23A4F8183104F517780398FFF778FD1A
:104500000399C4F808813846C4E9476606F0A7F95C
:104510000498C3224121FFF761F90EAA0DA904985E
:10452000ADF83450ADF838500AF007FB0B23A4F86F
:1045300060310498FFF75CFD0499C4F85081384657
:10454000C4E9596606F08BF9059840F20112412141
:10455000FFF744F90EAA0DA90598ADF83450ADF84F
:1045600038500AF0EAFA0A23A4F8A8310598FFF7B0
:104570003FFD0599C4F8988138464FF03208C4E9E8
:104580006B6606F06CF92A4629460698CDF800803D
:104590004346FEF759F94FF00103A4F81C324FF0DF
:1045A0007F43C4E9883303F54033C4E98A36504673
:1045B000FFF732F804F51B73C4F8E8314FF4877243
:1045C00043465046CDF80080BE21FEF73DF95146E6
:1045D000384606F044F903230EA95846ADF83830A2
:1045E0000AF069FC43464FF487725846CDF80080C4
:1045F000BE21FEF729F92946584609F04FFD1E2332
:10460000384684F85832594606F029F9204611B048
:10461000BDE8F08FE87E020854870208107B02088C
:10462000D07C02084C880208B87E0208CB42000801
:10463000D07E02081D430008FAFAFAFF806C70472A
:10464000C06C704770477047704770477047036889
:10465000DB6A184730B4C26844685510034604EB5F
:104660006200D20748BF62599B6830BC48BFD3582C
:1046700018470346406830B19A681AB9D86800F004
:10468000010070470120704710B55021044620F00A
:1046900034F8204610BD10B51021044620F02DF846
:1046A000204610BD10B5034B036004460BF04AFCD6
:1046B000204610BDD07F020810B5064B03600446AB
:1046C0000BF040FC204641F2041120F016F8204681
:1046D00010BD00BFD07F020800F1E803994270B519
:1046E00004460D4603D10DF05BFAFEF7F5F904F52B
:1046F000C6739D4205D1236820461B6BBDE8704000
:10470000184770BD70B50446FFF756F84FF47F4365
:104710002646A3850123002584F824300D4BA5628D
:10472000256346F8343B3046FFF766F80A4B63636F
:104730002A4629463046C4E91A55C4E91C5525665F
:10474000A4F86450FFF74AF82046314606F087F88F
:10475000204670BDD07C02084C8802082DE9F04F3D
:10476000044691B0A14600250FF078FA6A4BE56344
:1047700049F8403B04F16C0A4846FFF73DF804F164
:1047800098085046FFF738F826222946404621F07F
:10479000DAF84046FFF710F8604BC4F8C0304FF429
:1047A0007F03C4F8CC305E4BC4F898304FF6FF76E8
:1047B00004F1E8034FF0FF3BA4F8C4601846C4E9D5
:1047C00036B5C4E93855C4F8C850A4F8D050C4F878
:1047D000D4500293FFF796FF04F5B0730EA9184664
:1047E0000393ADF838B009F0C3FC04F5C67318465E
:1047F0000593FFF787FF04F501730EA9184604938C
:10480000ADF8386009F0B4FC04F50C731846069353
:10481000FEF7F2FF04F5177318460793FEF7ECFF57
:1048200004F522731846089308F0B2FE04F53473B9
:1048300018460993FCF77AFE3A4BC4F8D0323A4A4C
:10484000C4F8DC522433C4F8D83204F58053C3E9E9
:104850003D24364A4FF46161C3E93F2504F53970C0
:104860000BF066FB4FF4A0732A4648460093294696
:10487000F0234FF07F47261DFDF7E6FF49463046FF
:10488000A76605F0ECFF4FF4A0732A46504600934C
:104890002946F023FDF7D8FF51463046C4F89470FE
:1048A00005F0DDFF132256214046FEF797FFD4F8AE
:1048B0009830C4F8C8B00DF12809D3F88430A4F8B2
:1048C000CC5041464846984799E8070004F1D40A7D
:1048D0004FF002038AE8070084F8D130D4F898300A
:1048E0004146D3F884304846984799E807008AE85B
:1048F00007000F4A13682BB90E4B0F4A60210F486F
:1049000020F01AFEDFF83CA0BAF80030092B1BD8C3
:104910000B4B094A6121F2E7D07F0208107B0208A5
:10492000287F020830840208B87F0208D9460008B0
:1049300030370120DC730208DE7402085974020863
:10494000A074020824370120DFF8EC910921D9F87E
:10495000000000F07DFC754AC4F8E0001368002BED
:10496000CAD0BAF80030082BD2D90821D9F80000F3
:1049700000F06EFCC4F8E400404609F0E1FF6C4B27
:104980000E930EA9132340464FF0320AADF83C3087
:1049900009F0F6FF4146304605F061FF2A462946F8
:1049A000534604F58E70CDF800A0FDF74DFF4FF093
:1049B0000509604BD4F8E8800298C4F85871C4E93E
:1049C000547BC4F85C31A4F84C91FEF725FE84F8C2
:1049D0001551D8F89030029804F5875808F114085A
:1049E000984753464FF487720298C4F81881BE2145
:1049F000CDF800A0FDF728FF0299304605F02FFF03
:104A0000039801230EA9ADF838300AF054FA534642
:104A10004FF487720398CDF800A0BE21FDF714FF74
:104A20000398294609F03AFB1F23039984F888313B
:104A3000304605F014FF53462A46294604F5E07037
:104A4000CDF800A0FDF700FFC4E97D77C4E97F77CA
:104A50000598A4F8F091FEF7DFFD53464FF48772F6
:104A60000598C4F8BC812946CDF800A0FDF7ECFEFE
:104A70000599304605F0F3FE04984FF002030EA9A5
:104A8000ADF838300AF017FA53464FF4877204989D
:104A9000CDF800A02946FDF7D7FE0498294609F075
:104AA000FDFA1E23049984F82C323046502705F075
:104AB000D6FE069800970A237822DC21FDF7C4FE73
:104AC0000699C4F858B2304605F0C9FE0A231946C3
:104AD000079800977822FDF7B7FE0799C4F884B2CB
:104AE000304605F0BCFE0A23089800939B227321F0
:104AF000FDF7AAFEA023C4E9AD33C4F8BC324FF4DD
:104B00003453C4F8C432099B0899C4F8C8523046DB
:104B1000C4F8C052C4F8DCB2A4F8E0B2C4F8B032B1
:104B200005F09DFE204611B0BDE8F08F3037012022
:104B3000107B0208FC7E00FF2C3701207047704775
:104B4000704770470368DB6A184730B4C26844682E
:104B50005510034604EB6200D20748BF62599B68B8
:104B600030BC48BFD35818470346406830B19A68F4
:104B70001AB9D86800F0010070470120704710B5DD
:104B8000102104461FF0B9FD204610BD10B5034B9F
:104B9000036004460BF0D6F9204610BD24800208BD
:104BA00010B5064B036004460BF0CCF9204641F2E9
:104BB000D4011FF0A2FD204610BD00BF24800208D2
:104BC00000F1E403994270B504460D4603D10CF0A0
:104BD000E7FFFDF781FF04F5C4739D4205D123680B
:104BE00020461B6BBDE87040184770BD2DE9F04FA3
:104BF000044691B0A14600250FF030F8D14BE56393
:104C000049F8403B04F16C0A4846FEF7F5FD04F113
:104C100098085046FEF7F0FD26222946404620F02F
:104C200092FE4046FEF7C8FDC74BC4F8C0304FF4B3
:104C30007F03C4F8CC30C54BC4F898304FF6FF76EC
:104C400004F1E4034FF0FF3BA4F8C4601846C4E944
:104C500036B5C4F8C850A4F8D050C4F8D450C4F83D
:104C6000E0500393FFF74EFD04F5AE730EA918460E
:104C70000493ADF838B009F07BFA04F5C473184614
:104C80000693FFF73FFD04F500730EA91846059340
:104C9000ADF8386009F06CFA04F50B731846079309
:104CA000FEF7AAFD04F516731846089308F070FC89
:104CB00004F5287318460993FCF738FCA44BC4F894
:104CC000A032A44AC4F8AC522433C4F8A83204F584
:104CD0008053C3E93124A04A4FF46161C3E933250D
:104CE00004F52D700BF024F94FF4A0732A464846C2
:104CF00000932946F0234FF07F47261DFDF7A4FDC2
:104D000049463046A76605F0AAFD4FF4A0732A462F
:104D1000504600932946F023FDF796FD5146304654
:104D2000C4F8947005F09BFD11222C214046FEF73B
:104D300055FDD4F89830C4F8C8B00DF12809D3F85F
:104D40008430A4F8CC5041464846984799E807007B
:104D500004F1D40A4FF002038AE8070084F8D13046
:104D6000D4F898304146D3F884304846984799E8BB
:104D700007007A4B1B688AE807002BB9784B794A01
:104D80006021794820F0D8FB784B1B88112B03D881
:104D9000774B744A6121F4E7764B1121186800F0D3
:104DA00057FAC4F8E000404609F0CAFD664B0E937E
:104DB0000EA9122340464FF03209ADF83C3009F0FD
:104DC000DFFD4146304605F04AFD29464B462A465E
:104DD00004F58C70CDF80090FDF736FD4FF005031B
:104DE000654AD4F8E480A4F848310398C4F85821FF
:104DF000C4E9537BC4F85471FEF70EFC84F81151DA
:104E0000D8F89020039804F5865808F104089047D4
:104E10004B460398C4F814814FF48772CDF8009084
:104E2000BE21FDF711FD0399304605F018FD0498E9
:104E300001220EA9ADF838200AF03DF84B464FF498
:104E400087720498CDF80090BE21FDF7FDFC4FF06D
:104E50001E0A0498294609F021F9049984F884A1CE
:104E6000304605F0FCFC2A4629464B4604F5DE7028
:104E7000CDF80090FDF7E8FC4FF005030698A4F884
:104E8000EC31C4E97C77C4E97E77FEF7C5FB4B467D
:104E90004FF487720698C4F8B8812946CDF800907F
:104EA000FDF7D2FC0699304605F0D9FC05984FF085
:104EB00002030EA9ADF8383009F0FDFF4B464FF460
:104EC00087720598CDF800902946FDF7BDFC05983E
:104ED000294609F0E3F8059984F828A2304605F040
:104EE000BEFC502300930A23194607987822FDF749
:104EF000ABFC0799C4F854B2304605F0B0FC0A2365
:104F0000089800939B227321FDF79EFCA023C4E91F
:104F1000A133C4F88C324FF43453C4F89432099B53
:104F20000899C4F898523046C4F89052C4F8ACB20C
:104F3000A4F8B0B2C4F8803205F091FC204611B05C
:104F4000BDE8F08F24800208107B0208407C020834
:104F5000308402080C800208C14B00083037012061
:104F6000DC730208DE740208597402082437012039
:104F7000A07402082C370120FC7E00FF704700005F
:104F800030B5164D2C6814F001048FB0BFF35B8F61
:104F900020D128461FF0B3FBE0B13F230993104B0B
:104FA0000893104B104911480A940122CDE9064399
:104FB0000423CDE903320A230093CDE90B44CDE964
:104FC00001440594FEF7A2FF094820F0D3FA2846D1
:104FD0001FF0A1FB05480FB030BD00BFB82800206E
:104FE000C4C002084CC1020840BD0208BC28002011
:104FF0007D4F00087047000030B5174D2C6814F045
:1050000001048FB0BFF35B8F22D128461FF077FBDE
:10501000F0B13F230993114B0893114B07930123E0
:10502000CDE9054304930423CDE9024319230D4937
:10503000009325221E23CDE90B440B480A940194CA
:10504000FEF764FF094820F095FA28461FF063FB3D
:1050500005480FB030BD00BFE8280020C8C00208D6
:1050600050C1020850BD0208EC280020F54F00088E
:105070007047000030B5174D2C6814F001048FB054
:10508000BFF35B8F22D128461FF039FBF0B13F23DD
:105090000993114B0893114B07930123CDE9054365
:1050A00004930423CDE9024328230D4900931A22D7
:1050B0003023CDE90B440B480A940194FEF726FFF8
:1050C000094820F057FA28461FF025FB05480FB085
:1050D00030BD00BF1829002038C1020854C10208A1
:1050E00058BF02081C29002071500008002070479A
:1050F000002070470EB403B503AB002153F8042B16
:1051000001930DF093FD02B05DF804EB03B070471E
:105110000CB407B504AB53F8042B01930DF086FDD6
:1051200003B05DF804EB02B070470000436C10B5AB
:10513000044673B3038F2BB9184B194AC52119487C
:1051400020F0FAF9C38E00EB43035B8C0BB30FF036
:1051500063FC238F012B03D8134B144ACB21EEE7BA
:10516000E28E531C9BB2092B194688BFA3F10A019A
:1051700004EB410140F63F10498C814209D10A2BD2
:1051800004EB420228BF002304EB4303508C5884F5
:1051900051842046BDE810400FF041BB297502083C
:1051A00032750208DD750208277602083576020896
:1051B0000FF0FDBA10B586B002AC84E806001A46BE
:1051C0000AAB05930193099B00932146089B0CF0C1
:1051D0005CF806B010BD000038B518BB124B134880
:1051E0001C681349B4B122682244026062682244F8
:1051F0000A60A26814440F4B00221A8000F038F8AD
:10520000054600F033F80C4B1C600C4B1D600C4B3A
:10521000188007E00B4B03600B4B0B600B4B1C68BB
:10522000002CE8D138BD00BF542900204C290020B3
:10523000482900205029002030370120283701203C
:1052400024370120ACC1020858C102085880020866
:10525000044B1B6853F82100034B1B6803EB400011
:10526000704700BF482900204C29002015207047B6
:10527000004870475829002010B5FFF7BDFE044CC8
:105280002060FFF7F7FE6060FFF77AFEA06010BDB8
:105290005829002010B5002404600C6014601C60C4
:1052A00010BD704710B54FF4AE7104461FF025FADB
:1052B000204610BD10B50446D0F8580100F0DDF8C6
:1052C0002046BDE810400CF0F1BC000010B50446CB
:1052D000FDF7AEFB014B2360204610BD6480020841
:1052E000704704387047704710B5102104461FF00E
:1052F00004FA204610BDA0F10400F5E70022826008
:10530000024A026018324260C1607047B8800208E9
:10531000806800F0B5B8806800F0B9B87047000048
:1053200010B5034B03600446FEF774F9204610BD28
:10533000E080020810B50446FFF7F2FF20464FF464
:1053400011711FF0DAF9204610BD000010B50446B7
:10535000FEF788FA014B2360204610BDE08002086A
:105360002DE9F0410446FEF756F9E06BDFF84C807A
:10537000FFF7CEFF0646E06BFFF7CDFF04F50B7796
:1053800005463346424604F50E760621384610F0AF
:10539000A6F82B4642460621304610F0A0F804F548
:1053A000C270C4F8CC71C4F818620DF067FD04F542
:1053B000E870BDE8F0410DF061BD00BF077702085D
:1053C000704704387047704710B5182104461FF025
:1053D00094F9204610BDA0F10400F5E70022826098
:1053E000024A026018324260C160704714810208AC
:1053F000806800F054B8704710B5034B0360044652
:10540000FEF7C5FB204610BD3C81020810B50446DE
:10541000FFF7F2FF20464FF4F4711FF06EF92046BB
:1054200010BD000010B50446FEF7E8FB014B2360F9
:10543000204610BD3C81020838B50446FEF7A8FBA3
:10544000E06BFFF7D5FF04F5F0750346064A2846E2
:10545000032110F044F8C4F8CC5104F5C270BDE843
:1054600038400DF00BBD00BF077702080022C0E9ED
:105470000022C0E9022202617047704781607047D4
:1054800080687047C3688B42B8BFC1607047C0680E
:10549000704741607047406870470161704700691C
:1054A0007047704704387047704710B510210446A4
:1054B0001FF023F9204610BDA0F10400F5E700001D
:1054C00000228260024A026018324260C160704766
:1054D000708102087047000010B5034B036004465A
:1054E000FEF745FD204610BD9881020810B5044620
:1054F000FFF7F2FF20464FF4C0711FF0FEF8204680
:1055000010BD000010B50446FEF7B4FD014B23604A
:10551000204610BD98810208FEF72ABD7047043866
:105520007047704710B5102104461FF0E6F820467A
:1055300010BDA0F10400F5E700228260024A02607B
:1055400018324260C1607047CC8102088068FFF762
:10555000A0BF704708B5C06B0321FFF7F7FF0CF041
:105560001FFBBDE80840FDF7E7BA08B5C06B07218F
:10557000FFF7ECFF0CF014FBBDE80840FDF7DCBAC8
:1055800008B5C06B0F21FFF7E1FF0CF009FBBDE888
:105590000840FDF7D1BA000010B5034B0360044684
:1055A000FEF747FE204610BDF481020810B5044600
:1055B000FFF7F2FF20464FF41F711FF09EF82046C0
:1055C00010BD000010B50446FEF7B4FE014B236089
:1055D000204610BDF4810208FEF72CBE7047043847
:1055E0007047704710B5102104461FF086F820461A
:1055F00010BDA0F10400F5E700228260024A0260BB
:1056000018324260C1607047348202088068FFF738
:1056100042BF8068FFF741BF704700F5805090F8A7
:10562000483180F8493183F0010280F84821704701
:1056300010B5034B03600446FFF734F8204610BD55
:105640005C82020810B50446FFF7F2FF204641F2E3
:105650004C111FF052F8204610BD000010B5044652
:10566000FFF77CF8054B236004F580530022C3E963
:10567000422283F84821204610BD00BF5C82020808
:1056800010B50C4600F58053002C0CBF02246FF0BF
:105690000104C3F83C410024C3F84041022483F8CC
:1056A00049415A2473219B22C3F8444100F52274D6
:1056B0002046C3E94D12FBF75EFE2046BDE81040D0
:1056C00008F028BC2DE9F041044600F58058104F41
:1056D000D8F8083100F58856143604F589553A464D
:1056E0000435082130460FF0FAFED8F80C313A465E
:1056F000082128460FF0F3FEC4E9386598342046A7
:1057000009F05AF92046BDE8F0410DF0B7BB00BFE3
:105710000777020870B5044604F580550026FEF7A9
:1057200095FFC5E94266E06BFFF770FFC5F8100111
:105730002046FFF7C7FF31462046FFF7A1FF3C2375
:1057400085F84961C5F8443170BD0000F8B500F531
:105750008055044695F84831002B40F0088195F8B3
:105760004931012B17D0D5F84431002B10DD013B16
:10577000B5F93821C5F8443100F522742046B5F951
:105780003411FBF7F8FD2046BDE8F84008F0C2BB35
:10579000012385F84931764B1B78BBB3B4F96222FB
:1057A000033A04F5177622EAE2723046B4F9601241
:1057B00012B2FBF7E0FD30460DF060FB6D4B1B783D
:1057C000B3B3B4F93622033A04F50C7622EAE27256
:1057D0003046B4F9341212B2FBF7CDFD30460DF06D
:1057E0004DFBD5F84021D5F83801D5F83431D5F83E
:1057F0003C1110440B440028C5F834312ADC002049
:105800005242C5F83801C5F8402128E05A4B1B78B0
:10581000002BD3D0B4F96222B4F966320332D11826
:10582000B1F5A07FC8BFC3F5A07204F51776BCE739
:10583000524B1B78002BD4D0B4F93622B4F93A324B
:105840000332D118B1F5A07FC8BFC3F5A07204F52B
:105850000C76BDE7B0F59B7F19DAC5F83801002B4F
:105860001EDAD5F80C310133C5F80C312046FFF7AC
:1058700029FFD5E943239A420CDB0221E06BFFF7B5
:10588000C8FE0CF08DF9BDE8F840FDF775B94FF48E
:105890009B70B5E700212046BDE8F840FFF7F0BE59
:1058A000E62B10DDD5F808310133C5F80831204664
:1058B000FFF708FFD5F80821D5F810319A424FF0CC
:1058C0000101E8DBDAE70029D5F8382131DAB4F94B
:1058D000606203F10A00864220DAB4F964023044BF
:1058E00083421BDAB4F9626202F10A039E4215DABE
:1058F000B4F966329F19974210DDC5F8340103EB05
:10590000D37006EB6006531D9B1B494247109B005A
:10591000C5F83C1193FBF7F3C5F84031D5F8403199
:10592000042B1FDD0423C5F8403104F5227412B2A4
:1059300024E7F3D0B4F9340203F10A06B042EDDAF9
:10594000B4F938620644B342E8DAB4F9366202F1D7
:105950000A039E42E2DAB4F93A329F199742DDDD3A
:105960000A38CAE70433E0DA6FF00303DBE7F8BD77
:105970008B260020892600208A26002088260020E9
:10598000704704387047704710B5102104461EF068
:10599000B4FE204610BDA0F10400F5E700228260AD
:1059A000024A026018324260C16070479882020861
:1059B0008068FFF763BD38B504460D468068FFF781
:1059C0005DFDA0682946BDE83840FFF75BBD704724
:1059D00000F5805090F8D430012B03D1022380F8D9
:1059E000D4307047022BFCD10123F8E710B5034BEC
:1059F00003600446FFF7CAF8204610BDC0820208C3
:105A000010B50446FFF7F2FF204641F2FC011EF0FC
:105A100074FE204610BD000010B50446FFF7E6F8FE
:105A2000014B2360204610BDC082020810B500F56E
:105A300080530324C3E93944732100F516749B2273
:105A40002046C3E93712FBF796FC2046BDE810401C
:105A500008F060BA38B500F5875500F58053044664
:105A60001035D3F8EC30064A284606210FF037FDF2
:105A7000C4F8E05004F19800BDE838400DF0FEB9DC
:105A80000777020870B5044604F580550026FFF735
:105A900058F82046C5F8EC60FFF7DCFF2046FFF71A
:105AA000C5FF3C2385F8D460C5F8D83070BD000030
:105AB000F8B500F58054054694F8D43053B9D4F8BD
:105AC000D830002B03DD013BC4F8D830F8BD0123EA
:105AD00084F8D43094F8D430022BF7D0032B0ED1B5
